:020000040800F2
:10000000500B002089010008F52A00081928000873
:10001000F12A0008F503000851360008000000002E
:10002000000000000000000000000000812D00081A
:100030004504000800000000312B00089D2F000837
:10004000A3010008A3010008A3010008A301000800
:10005000A3010008A3010008470400086504000884
:10006000A3010008A3010008A3010008F903000888
:10007000A3010008A301000809040008A301000867
:10008000A3010008A301000891020008A3010008D1
:10009000A3010008A3010008A30100086F040008E1
:1000A000A301000881300008A3010008A301000893
:1000B000A3010008A3010008A3010008A301000890
:1000C000A3010008A3010008A3010008A301000880
:1000D000A301000841360008A3010008A30100089D
:1000E00051040008A3010008A301000800F002F871
:1000F00000F03AF80AA090E8000C82448344AAF188
:100100000107DA4501D100F02FF8AFF2090EBAE885
:100110000F0013F0010F18BFFB1A43F0010318473B
:10012000C43E0000E43E0000103A24BF78C878C105
:10013000FAD8520724BF30C830C144BF04680C60ED
:10014000704700000023002400250026103A28BF35
:1001500078C1FBD8520728BF30C148BF0B60704739
:100160001FB51FBD10B510BD00F058F81146FFF7C0
:10017000F7FF03F0D9FA00F076F803B4FFF7F2FFC7
:1001800003BC00F07DF8000009488047094800479B
:10019000FEE7FEE7FEE7FEE7FEE7FEE7FEE7FEE737
:1001A000FEE7FEE704480549054A064B7047000094
:1001B00029300008ED00000850050020500B0020F9
:1001C00050070020500700204FF0000200B51346F2
:1001D00094469646203922BFA0E80C50A0E80C5067
:1001E000B1F12001BFF4F7AF090728BFA0E80C5018
:1001F00048BF0CC05DF804EB890028BF40F8042B11
:1002000008BF704748BF20F8022B11F0804F18BF7D
:1002100000F8012B7047704770477047754600F033
:100220002BF8AE4605006946534620F00700854688
:1002300018B020B5FFF7B6FFBDE820404FF000062C
:100240004FF000074FF000084FF0000B21F00701BE
:10025000AC46ACE8C009ACE8C009ACE8C009ACE801
:10026000C0098D46704710B50446AFF300802046A4
:10027000BDE81040FFF781BF00487047EC04002044
:1002800001491820ABBEFEE72600020070470000BF
:1002900010B5024800F018FB10BD0000B4030020A8
:1002A00070B5044600252068806800F00100F0B1B8
:1002B0002068806820F001002168886001F050F912
:1002C00005460EE001F04CF9401B022809D9A06A4E
:1002D00040F01000A062E06A40F00100E0620120FE
:1002E00070BD2068806800F001000028EAD100207D
:1002F000F6E770B505466C6AA06A00F05000E0B9F8
:10030000A06A40F40070A0622068806800F4602059
:10031000B0F5602F0DD1E06858B9A06A20F4807064
:10032000A062A06A00F4805018B9A06A40F00100F1
:10033000A062204600F0B8FA03E0206A016B28466C
:10034000884770BD70B505466C6AA06A40F04000F1
:10035000A062E06A40F00400E062204600F0B3FAD8
:1003600070BD70B50446656A284600F0ABFA70BDF2
:1003700038B504460025002000902068806800F011
:10038000010080BB2068806840F00100216888601F
:10039000164800681649B0FBF1F0009002E00098A2
:1003A000401E009000980028F9D101F0D9F80546C8
:1003B00013E001F0D5F8401B02280ED9A06A40F0E6
:1003C0001000A062E06A40F00100E06200BF00207F
:1003D00084F8240000BF012038BD2068806800F048
:1003E00001000028E5D00020F6E7000058000020BA
:1003F00040420F0000BFFEE710B5024800F05EFD6E
:1004000010BD0000E403002010B5024800F056FDC6
:1004100010BD0000A804002030B590F84050012421
:10042000AC40C56B6C60046863604468102C04D1F8
:100430000468A2600468E16003E00468A1600468E5
:10044000E26030BD704710B5012000F0E3FE10BD42
:1004500010B54FF4806000F0DDFE4FF4005000F066
:10046000D9FE10BD10B5022000F0D4FE10BD10B5AD
:10047000802000F0CFFE10BD704730B5024600204E
:100480000023002419E023B1012B0AD0022B11D143
:100490000AE032F81050002D02DD08805D1CABB27E
:1004A00008E05D1CABB205E032F81050002D00DD15
:1004B000888000BF00BF451CA8B2C828E3DB30BD60
:1004C0002DE9FE4F05468A461446964800780028D6
:1004D0007ED000209349087002229349934800F08F
:1004E00087FB002002909248007818B99048407825
:1004F00000284ED08F4800888E4B5B88984205DCE0
:100500008C4800888B4B5B88984202D189480088D0
:1005100001E088484088014687480088864BDB8890
:10052000984205DB84480088834BDB88984202D1DF
:100530008148008801E08048C0880246901C084439
:1005400081B2C82900DDC821FF2C04D10020784BDE
:100550001870587002E00020754B1855104615E0D1
:10056000FF2C08D1002325F81030002605F5C873AC
:1005700023F8106008E0002304EBC40606EB041621
:1005800005EB061626F81030431C98B28842E7DBCC
:1005900000BF002677E0304603F01CFB0022674BCB
:1005A000CDE9000103F02AFB074603F0CFFA1FFA5A
:1005B00080F9484603F00EFB074600225F4B03F02C
:1005C000C5F8CDE9000103F0C1FA1FFA80FB00E095
:1005D000A5E0FF2C32D154480068401C48450BD997
:1005E00051480068584507D235F81600401C25F8D8
:1005F000160001208DF808004B484068401C484513
:1006000010D94948406858450CD205F5C87030F8F3
:100610001600401C81B205F5C87020F816100120A4
:100620008DF809009DF8080058B39DF8090040B303
:1006300000208DF808008DF8090026E014B93A482A
:10064000006801E038484068401C484519D914B991
:100650003548006801E034484068584511D204EB41
:10066000C40000EB041005EB001030F81600401C2D
:1006700004EBC40101EB041105EB011121F8160094
:1006800003E0701C86B2C82E85DB00BF2C480088B2
:10069000C82842DDFF2C1CD127492846FFF7EDFE74
:1006A0002548808824490988401AAAF80000224970
:1006B000891D05F5C870FFF7E0FE1F4840891E49F7
:1006C000C988401AAAF80200012019490870487028
:1006D0001DE004EB4402184B03EB420104EBC4029F
:1006E00002EB041205EB0210FFF7C7FE04EB440017
:1006F000114901EB4000808804EB44010E4A32F8B6
:100700001110401A2AF81400012009490855002048
:100710000B4908800120BDE8FE8F0020FBE700BFE9
:10072000F9E700000400002010000020B4030020BE
:100730002C0000202800002080030020000034400E
:10074000180000207047000038B502460023002042
:10075000009000BF92F82400012801D1022038BD8A
:10076000012082F8240000BF4868072812D21068D0
:10077000406B0C79641E04EB84051F24AC40A0433D
:100780000D796D1E05EB85050C68AC40204314689F
:10079000606327E048680D2812D21068006B0C795E
:1007A000E41F04EB84051F24AC40A0430D79ED1F2A
:1007B00005EB85050C68AC4020431468206311E00C
:1007C0001068C06A0C790D3C04EB84051F24AC4012
:1007D000A0430D790D3D05EB85050C68AC40204329
:1007E0001468E06208680A2812D31068C0680C78A0
:1007F0000A3C04EB44050724AC40A0430D780A3DB5
:1008000005EB45058C68AC4020431468E0600FE0C0
:10081000106800690C7804EB44050724AC40A04341
:100820000D7805EB45058C68AC40204314682061C9
:100830000868102802D00868112827D1174C1068C2
:10084000A0421ED11068806800F40000F0B9106862
:10085000806840F400001468A0600868102815D172
:100860000F4800680F4CB0FBF4F000EB8000400034
:10087000009002E00098401E009000980028F9D1F6
:1008800004E0906A40F020009062012300BF002045
:1008900082F8240000BF184661E7000000240140F0
:1008A0005800002040420F0010B5044601200349C3
:1008B0000870034800F05CFA10BD0000040000203E
:1008C000B40300207047704710B5044620684068A4
:1008D00000F0200020282FD12068006800F00200DE
:1008E000022829D1A06A00F0100018B9A06A40F4CB
:1008F0000070A0622068806800F46020B0F5602F6E
:1009000013D1E06888B92068406820F02000216891
:100910004860A06A20F48070A062A06A00F4805051
:1009200018B9A06A40F00100A0622046FFF7BCFFA2
:100930006FF01200216808602068406800F08000B5
:1009400080283BD12068006800F00400042835D1DD
:10095000A06A00F0100018B9A06A40F40050A0622C
:100960002068806800F4E040B0F5E04F0DD02068CA
:10097000406800F48060D0B92068806800F460208E
:10098000B0F5602F13D1E06888B92068406820F086
:10099000800021684860A06A20F48050A062A06AAC
:1009A00000F4807018B9A06A40F00100A0622046EF
:1009B000FFF7C8FE6FF00C002168086020684068EF
:1009C00000F0400040280FD12068006800F00100CE
:1009D00050B1A06A40F48030A062204600F0A8F830
:1009E0006FF001002168086010BD00002DE9F041A2
:1009F0000446002700250026A84614B90120BDE8BA
:100A0000F081A06810B1606900B100BFA06A30B980
:100A10000020E06284F82400204600F08BF8204695
:100A2000FFF73EFC0746A06A00F01000002873D1D3
:100A3000002F71D1A06A20F4885040F00200A0621B
:100A4000E16960680843E16840EA41000643A06844
:100A5000B0F5807F02D0A068012802D14FF48070E9
:100A600000E0002005436069012811D1E06838B931
:100A7000A069401E4FF4006141EA4030054307E0A1
:100A8000A06A40F02000A062E06A40F00100E0624D
:100A90002068406820F46940284321684860206845
:100AA000806821490840304321688860A068B0F51B
:100AB000807F02D0A068012802D14FF4807000E04E
:100AC0000020B0F5807F03D1208A401E4FEA0058F5
:100AD0002068C06A20F4700040EA08002168C862FB
:100AE0002068806811490840B04208D10020E062C7
:100AF000A06A20F0020040F00100A06211E0A06AAC
:100B000020F0020040F01000A062E06A40F0010016
:100B1000E062012705E0FFE7A06A40F01000A06254
:100B2000012738466BE70000FDF7E1FFFE0E1FFFCF
:100B30007047000010B586B0044600200290039074
:100B40000490059025492068884244D100BF24487C
:100B5000806940F40070224988610846806900F489
:100B60000070019000BF00BF00BF0846806940F0E0
:100B7000040088610846806900F00400019000BF0D
:100B800000BF03200290039002A9164800F050FB1A
:100B9000154816490860002048600021134881600C
:100BA0008021C1608900016189004161002181616A
:100BB000C16100F051FA08B1FFF75EFC00BF0B48BD
:100BC0002062446200BF00221146122000F039FD6D
:100BD000122000F029FD06B010BD000000240140E5
:100BE000001002400008014008000240E403002019
:100BF0002DE9F04104460D46164600275749206866
:100C0000884203D056492068884205D15348001DC8
:100C1000006800F4702000E0002000287ED100BFB2
:100C200094F82400012802D10220BDE8F0810120BF
:100C300084F8240000BF2046FFF79AFB0746002FE8
:100C40006DD1A06A40F60161884340F48070A062D3
:100C500043492068884209D14048001D006800F4DB
:100C6000702008B9012002E0002000E0012078B1E6
:100C7000A06A20F48010A0622068406800F48060C0
:100C800000B3A06A20F4005040F48050A06219E044
:100C9000A06A40F48010A06230492068884203D0E6
:100CA0002F492068884205D12C48001D006800F4B7
:100CB000806000E0002028B1A06A20F4005040F4D9
:100CC0008050A062A06A00F4805020B1E06A20F059
:100CD0000600E06201E00020E06200BF002084F82E
:100CE000240000BF1F48216A88621F48216AC86229
:100CF0001E48216A08636FF00200216808602068BE
:100D0000806840F4807021688860226802F14C019C
:100D100033462A46206A00F0D7F901E01AE014E0D1
:100D20002068806800F46020B0F5602F06D120684C
:100D3000806840F4A000216888600CE0206880682A
:100D400040F480102168886005E000BF002084F82E
:100D5000240000E00127384667E700000024014036
:100D600000280140F302000863030008450300085F
:100D700070B50446002500BF94F82400012801D175
:100D8000022070BD012084F8240000BF2046FFF738
:100D900087FA0546ADB92068806820F48070216824
:100DA0008860206A00F014F8054635B9A06A20F47E
:100DB000885040F00100A06203E0A06A40F04000CB
:100DC000A06200BF002084F8240000BF2846D8E7B6
:100DD000014600200A68126822F00E020B681A60B1
:100DE0000A68126822F001020B681A6091F840301C
:100DF00001229A40CB6B5A60012281F8212000BF6A
:100E0000002281F8202000BF7047000070B5044622
:100E1000002594F82100022803D00420A0630125B6
:100E200048E02068006820F00E0021680860206813
:100E3000006820F00100216808601F49206888428E
:100E400001D1012026E01C4914312068884201D1DB
:100E500010201FE0184928312068884201D18015F0
:100E600018E015493C312068884201D1801411E016
:100E7000114950312068884202D14FF4803009E096
:100E80000D4964312068884202D14FF4801001E09E
:100E90004FF08070084908394860012084F821002B
:100EA00000BF002084F8200000BF606B10B1204616
:100EB000616B8847284670BD0800024070B5044643
:100EC000E06B05682068066894F8401004208840AC
:100ED0002840002846D006F00400002842D02068B0
:100EE000006800F0200028B92068006820F00400A5
:100EF0002168086057492068884201D1042027E012
:100F0000544914312068884201D1402020E05149E1
:100F100028312068884201D1001519E04D493C3143
:100F20002068884202D14FF4804011E04949503195
:100F30002068884202D14FF4802009E0454964319D
:100F40002068884202D14FF4800001E04FF08060B9
:100F5000404908394860E06A00287AD02046E16AB2
:100F6000884776E094F84010022088402840A0B3DB
:100F700006F0020088B32068006800F0200040B945
:100F80002068006820F00A0021680860012084F8C9
:100F9000210030492068884201D1022028E02D49F3
:100FA00014312068884201D1202021E029492831CC
:100FB0002068884201D140151AE026493C3120685A
:100FC000884202D14FF4005012E02249503120688B
:100FD000884203D14FF400300AE017E01D49643124
:100FE0002068884202D14FF4001001E04FF00070F9
:100FF00018490839486000BF002084F8200000BF6D
:10100000A06A30B32046A16A884722E094F84010D5
:10101000082088402840E0B106F00800C8B12068E8
:10102000006820F00E002168086094F8401001204C
:101030008840E16B48600120A06384F8210000BF74
:10104000002084F8200000BF206B10B12046216BE7
:10105000884770BD080002400146002209B90120FE
:101060007047184B0868C01A1423B0FBF3F08000D7
:10107000086414480838C863022081F82100086811
:10108000026843F6F0708243D1E901031843CB684C
:1010900018430B6918434B6918438B691843CB6994
:1010A000184302430868026000208862C86208632F
:1010B00048638863012081F82100002081F8200026
:1010C00000BFCDE7080002402DE9F04104460D467F
:1010D00016461F464FF0000800BF94F82000012874
:1010E00002D10220BDE8F081012084F8200000BF79
:1010F00094F8210001282CD1022084F8210000203E
:10110000A0632068006820F00100216808603B4669
:10111000324629462046FFF77FF9E06A30B1206861
:10112000006840F00E00216808600BE0206800684D
:1011300020F00400216808602068006840F00A0080
:10114000216808602068006840F00100216808609C
:1011500006E000BF002084F8200000BF4FF0020826
:101160004046BFE726490978002948D00021244A93
:10117000117080281AD004DC012821D002283DD12A
:1011800028E0B0F5806F2FD0B0F5005F36D11D4953
:10119000097809B9012100E000211A4A11700121E2
:1011A000194A11700021194A118027E0184909884D
:1011B000C82904DA16490988491C154A11801DE01E
:1011C00013490988012904D911490988491E104A7F
:1011D000118013E00E494988C82904DA0C4949886E
:1011E000491C0B4A518009E009494988012904D961
:1011F00007494988491E064A518000BF00BF704711
:101200000C0000201E0000200D0000201A0000200D
:101210002E00002010B5044604480068204020B18C
:10122000024804602046FFF79DFF10BD14040140F2
:101230002DE9F847034600240020002584460027B6
:1012400000226EE14FF0010808FA02F4D1F80080A4
:1012500008EA0400A0427DD1DFF8D0A2D1F80480D2
:10126000A8EB0A09D0453AD014DCB8F1030F50D0EE
:1012700009DCB8F1000F31D0B8F1010F1CD0B8F182
:10128000020F49D120E0B8F1110F18D0B8F1120FB8
:1012900042D11EE0B9F5881F25D006DCB9F5803FA4
:1012A00020D0B9F5801F37D11AE0B9F5001F18D04A
:1012B000B9F5041F30D117E0D1F80CC02DE0D1F8FA
:1012C0000C8008F1040C28E0D1F80C8008F1080C1F
:1012D00023E0D1F80C8008F10C0C1EE000BF00BF29
:1012E00000BF00BF00BF00BFD1F80880B8F1000FF9
:1012F00002D14FF0040C0BE0D1F80880B8F1010FD7
:1013000003D14FF0080C1C6102E04FF0080C5C6147
:1013100003E04FF0000C00E000BF00BFFF2801D841
:10132000984601E003F104084646FF2802D84FEA38
:10133000820803E0A2F108084FEA88084746D6F879
:1013400000804FF00F0909FA07F928EA09080CFA9A
:1013500007F900E088E048EA0908C6F80080D1F8FB
:10136000048008F08058B8F1805F7DD100BFDFF8BD
:10137000C081D8F8188048F00108DFF8B491C9F8A6
:101380001880C846D8F8188008F00108CDF8008009
:1013900000BF00BF4FEAB9384FEA920958F8295008
:1013A0004FEA82784FEA18794FF00F0808FA09F8E7
:1013B00025EA0805DFF87C81434502D14FF000089B
:1013C00016E0DFF87481434502D14FF001080FE0C9
:1013D000DFF86881434502D14FF0020808E0DFF8EA
:1013E0006081434502D14FF0030801E04FF004084B
:1013F0004FEA82794FEA197908FA09F848EA0505AF
:10140000DFF840814FEA920948F82950D1F804806A
:1014100008F48038B8F5803F0AD1DFF82C81D8F87D
:10142000008048EA0008DFF82091C9F8008009E050
:10143000DFF81481D8F8008028EA0008DFF8089166
:10144000C9F80080D1F8048008F40038B8F5003FEE
:1014500010D1DFF8F48008F10408D8F8008048EAD9
:101460000008DFF8E49000E05AE009F10409C9F847
:1014700000800DE0DFF8D08008F10408D8F8008083
:1014800028EA0008DFF8C09009F10409C9F80080D3
:10149000D1F8048008F48018B8F5801F0ED1DFF869
:1014A000A88008F10808D8F8008048EA0008DFF8AA
:1014B000989009F10809C9F800800DE0DFF88880EC
:1014C00008F10808D8F8008028EA0008DFF87890CA
:1014D00009F10809C9F80080D1F8048008F400185F
:1014E000B8F5001F0ED1DFF8608008F10C08D8F8BD
:1014F000008048EA0008DFF8509009F10C09C9F8AB
:1015000000800DE0DFF8408008F10C08D8F800807A
:1015100028EA0008DFF8309009F10C09C9F80080CA
:10152000521C102AFFF48EAEBDE8F887000011109F
:101530000010024000080140000C01400010014072
:10154000001401400800014000040140C2684A4004
:10155000C26070470AB1016101E00B04036170478A
:1015600001480068704700005C00002002480068E5
:10157000401C0149086070475C00002010B5084815
:10158000006840F0100006490860032000F098F859
:10159000002000F007F800F019F8002010BD00004E
:1015A0000020024070B50446074800684FF47A7185
:1015B000B0FBF1F5284600F093FC00222146501EB6
:1015C00000F03FF8002070BD5800002008B500BFB3
:1015D0001348806940F0010011498861084680691C
:1015E00000F00100009000BF00BF00BF0846C069C6
:1015F00040F08050C8610846C06900F080500090FB
:1016000000BF00BF00BF0748406820F0E060054908
:1016100048600846406840F00070486000BF08BD60
:10162000001002400000014000BF00F01F02012135
:1016300091404209920002F1E022C2F8001100BF7D
:1016400070472DE9F05F80460D461646002701F0F1
:1016500053FA074639462A46334601F00700C0F1DF
:10166000070ABAF1040F02D94FF0040A01E0C0F1F1
:10167000070AD14600F1040ABAF1070F02D24FF06F
:10168000000A01E0A0F1030AD4464FF0010A0AFA69
:1016900009FAAAF1010A0AEA020A0AFA0CFA4FF058
:1016A000010B0BFA0CFBABF1010B0BEA030B4AEA43
:1016B0000B042146404601F027FABDE8F09F0000E8
:1016C00000BF00F00702064B19684FF6FF031940F0
:1016D000044B0B4343EA0221014B196000BF7047E2
:1016E0000CED00E00000FA05F8B5044600260025E0
:1016F000207800F0010000286BD000274348C06923
:1017000000F0805070B900BF4048C06940F0805080
:101710003E49C8610846C06900F08050009000BF93
:1017200000BF01273A48006800F48070B0B938481B
:10173000006840F4807036490860FFF711FF0646E4
:1017400006E0FFF70DFF801B642801D90320F8BDD8
:101750002F48006800F480700028F2D02B48006AFF
:1017600000F440752DB3A08800F44070A84220D04A
:101770002648006A20F440750120264908600020B0
:1017800008602248056205F0010090B1FFF7E8FE0D
:10179000064608E0FFF7E4FE801B41F288318842EC
:1017A00001D90320D3E71948006A00F0020000289D
:1017B000F0D01648006A20F440706168084313496D
:1017C0000862012F04D10846C06920F08050C8612A
:1017D00000BF207800F00200022807D10B484068C3
:1017E00020F44040A168084308494860207800F090
:1017F0001000102807D10548406820F48000E168F7
:101800000843024948600020A1E7000000100240A0
:10181000007000404004424270B504460D46002668
:101820006248006800F00700A8420ED25F480068D6
:1018300020F0070028435D4908600846006800F072
:101840000700A84201D0012070BD207800F00200FE
:10185000022807D15648406820F0F000A1680843EC
:1018600053494860207800F0010000285DD060688E
:10187000012806D14E48006800F4003090B90120DC
:10188000E2E76068022806D14948006800F000706D
:1018900040B90120D8E74648006800F0020008B9C6
:1018A0000120D1E74248406820F003006168084306
:1018B0003F494860FFF754FE06466068012810D192
:1018C00008E0FFF74DFE801B41F28831884201D9C4
:1018D0000320B9E73648406800F00C000428F0D136
:1018E00023E06068022810D108E0FFF739FE801B72
:1018F00041F28831884201D90320A5E72C4840688D
:1019000000F00C000828F0D10FE008E0FFF728FEF7
:10191000801B41F28831884201D9032094E7244892
:10192000406800F00C000028F0D12048006800F06A
:101930000700A8420ED91D48006820F00700284380
:101940001A4908600846006800F00700A84201D064
:10195000012079E7207800F00400042807D114481A
:10196000406820F4E060E16808431149486020784D
:1019700000F00800082808D10D48406820F46050A5
:10198000216940EAC1000A49486000F03DF8084971
:101990004968C1F30311074A515CC8400649086011
:1019A0000020FFF7FFFD00204EE70000002002406E
:1019B00000100240CC3F0008580000200148006899
:1019C000704700005800002000B5FFF7F7FF0449FA
:1019D0004968C1F30221034A515CC84000BD0000C0
:1019E00000100240DC3F000800B5FFF7E7FF0449A4
:1019F0004968C1F3C221034A515CC84000BD0000E0
:101A000000100240DC3F0008F0B585B00FF2700C0A
:101A10009CE8E01001A8A0E8E0101DA52D68009545
:101A2000002100240022002300201A4D696801F0E3
:101A30000C05FDB1042D02D0082D1AD101E0164885
:101A40001AE001ADC1F38346AB5D01F480355DB1B1
:101A5000104D6D68C5F340451DF805400E4DB5FBB2
:101A6000F4F505FB03F202E00C4D03FB05F2104612
:101A700002E000BF084800BF00BF05B0F0BD000095
:101A800002030405060708090A0B0C0D0E0F1010BF
:101A9000010200000010024000127A0000093D001F
:101AA000F8B504460025207800F00100002878D021
:101AB000F848406800F00C0004280CD0F548406855
:101AC00000F00C00082811D1F248406800F4803082
:101AD000B0F5803F0AD1EF48006800F400300028DC
:101AE0005FD0606800285CD10120F8BD00BF60684D
:101AF000B0F5803F06D1E748006840F48030E54902
:101B0000086028E0606858B9E248006820F4803036
:101B1000E04908600846006820F4802008601AE068
:101B20006068B0F5A02F0BD1DA48006840F480203F
:101B3000D84908600846006840F4803008600AE030
:101B4000D448006820F48030D24908600846006814
:101B500020F48020086000BF606888B1FFF700FDB6
:101B6000054606E0FFF7FCFC401B642801D9032072
:101B7000BBE7C848006800F400300028F2D010E04D
:101B8000FFF7EEFC054606E0FFF7EAFC401B642881
:101B900001D90320A9E7BF48006800F400300028FD
:101BA000F2D1207800F00200022857D1B9484068ED
:101BB00000F00C0050B1B748406800F00C00082855
:101BC00018D1B448406800F4803098B9B148006832
:101BD00000F0020020B12069012801D0012084E733
:101BE000AC48006820F0F800616940EAC100A949EA
:101BF000086033E02069E8B10120A7490860FFF7D9
:101C0000AFFC054606E0FFF7ABFC401B022801D9FC
:101C100003206AE79F48006800F002000028F2D025
:101C20009C48006820F0F800616940EAC1009949C9
:101C3000086013E0002098490860FFF791FC054612
:101C400006E0FFF78DFC401B022801D903204CE77A
:101C50009048006800F002000028F2D1207800F0DF
:101C6000080008282DD1A069B8B101208B4908606F
:101C7000FFF776FC054606E0FFF772FC401B0228E2
:101C800001D9032031E78348406A00F002000028B0
:101C9000F2D0012001F060F813E000207F490860D5
:101CA000FFF75EFC054606E0FFF75AFC401B0228E2
:101CB00001D9032019E77748406A00F002000028A4
:101CC000F2D1207800F00400042873D10026714876
:101CD000C06900F0805070B900BF6E48C06940F024
:101CE00080506C49C8610846C06900F0805000907F
:101CF00000BF00BF01266A48006800F48070B0B9D8
:101D00006748006840F4807065490860FFF728FC68
:101D1000054606E0FFF724FC401B642801D9032098
:101D2000E3E65F48006800F480700028F2D000BF4E
:101D3000E068012806D15748006A40F00100554983
:101D4000086227E0E06858B95248006A20F00100B4
:101D5000504908620846006A20F00400086219E051
:101D6000E06805280BD14B48006A40F0040049495F
:101D700008620846006A40F0010008620AE045482F
:101D8000006A20F00100434908620846006A20F01A
:101D90000400086200BFE068A0B1FFF7E1FB054660
:101DA00009E0FFF7DDFB401B41F28831884202D990
:101DB00003209AE622E03748006A00F0020000287B
:101DC000EFD012E0FFF7CCFB054608E0FFF7C8FBB9
:101DD000401B41F28831884201D9032085E62D4815
:101DE000006A00F002000028F0D1012E05D1294838
:101DF000C06920F080502749C86100BFE069C8B3BE
:101E00002448406800F00C00082860D0E0690228EF
:101E100048D1002020490866FFF7A2FB054606E0EE
:101E2000FFF79EFB401B022801D903205DE61948FD
:101E3000006800F000700028F2D1206AB0F5803F01
:101E400007D11448406820F40030A16808431149C4
:101E50004860D4E9080108430E49496821F4741127
:101E600008430C49486001200B490866FFF778FBDE
:101E7000054607E02DE0FFF773FB401B022801D960
:101E8000032032E60348006800F000700028F2D01A
:101E90001FE0000000100240000042428004424265
:101EA0000070004000200C490866FFF759FB05460A
:101EB00006E0FFF755FB401B022801D9032014E67A
:101EC0000648006800F000700028F2D101E001200F
:101ED0000BE6002009E6000000004242001002402C
:101EE00070B504462546681EB0F1807F01D30120FD
:101EF0000FE0681E4FF0E02148610F214FF0FF30E6
:101F000000F002FE00204FF0E02188610720086108
:101F1000002070BD7047704710B50346002200BF17
:101F200093F83C00012801D1022010BD012083F864
:101F30003C0000BF22F0FF00CC6840EA040222F41B
:101F400040708C6840EA040222F480604C6840EAE9
:101F5000040222F400600C6840EA040222F480507B
:101F60000C6940EA040222F400504C6940EA040281
:101F700022F480408C6940EA040222F400408C691B
:101F800040EA04021868426400BF002083F83C0065
:101F900000BF00BFC9E7024600BF92F83C0001281D
:101FA00001D102207047012082F83C0000BF0220CE
:101FB00082F83D001068406820F070001368586097
:101FC000106840680B681843136858601068806890
:101FD00020F0800013689860106880684B68184390
:101FE00013689860012082F83D0000BF002082F84D
:101FF0003C0000BF00BFD5E710B504460CB9012076
:1020000010BD94F83D0028B9002084F83C0020461B
:1020100000F00CF8022084F83D00211D206801F03A
:1020200037F8012084F83D000020E9E738B5044680
:102030000D492068884215D100BF0C48806940F4E2
:1020400000600A4988610846806900F400600090D9
:1020500000BF00BF002211461920FFF7F2FA192035
:10206000FFF7E2FA38BD0000002C014000100240EA
:1020700001460868C06840F001000A68D06008683E
:10208000006840F001000A681060002070472DE9E8
:10209000F04104460D46002600BF94F83C0001289C
:1020A00002D10220BDE8F081012084F83C0000BF8D
:1020B000022084F83D002068866826F0770626F422
:1020C0007F4620688660286850283BD00CDC20289A
:1020D00060D004DC002853D0102865D155E03028AA
:1020E0005DD0402860D141E0602835D070280DD007
:1020F000B0F5805F03D0B0F5005F55D115E02068E2
:10210000806820F00700216888604EE0D5E902135E
:102110006A68206800F0F6FF2068866826F0770677
:1021200046F07706206886603FE0D5E902136A68CA
:10213000206800F0E7FF2068806840F48040216854
:10214000886032E0EA686968206801F0B9F85021D7
:10215000206800F0E3FF28E0EA686968206801F081
:10216000C4F86021206800F0D9FF1EE0EA686968C1
:10217000206801F0A5F84021206800F0CFFF14E0AE
:102180000021206800F0CAFF0FE01021206800F055
:10219000C5FF0AE02021206800F0C0FF05E03021E3
:1021A000206800F0BBFF00E000BF00BF012084F802
:1021B0003D0000BF002084F83C0000BF00BF71E775
:1021C000704710B5044620680069C0F34000D8B1DC
:1021D0002068C068C0F34000B0B16FF00200216811
:1021E0000861012020772068806900F0030018B1A1
:1021F0002046FFF7E5FF05E0204600F0D9F820462D
:1022000000F076F90020207720680069C0F3800094
:10221000D8B12068C068C0F38000B0B16FF004008E
:1022200021680861022020772068806900F44070EE
:1022300018B12046FFF7C4FF05E0204600F0B8F8CB
:10224000204600F055F90020207720680069C0F38F
:10225000C000D8B12068C068C0F3C000B0B16FF052
:10226000080021680861042020772068C06900F018
:10227000030018B12046FFF7A3FF05E0204600F059
:1022800097F8204600F034F9002020772068006994
:10229000C0F30010D8B12068C068C0F30010B0B11E
:1022A0006FF0100021680861082020772068C0695D
:1022B00000F4407018B12046FFF782FF05E0204689
:1022C00000F076F8204600F013F90020207720680F
:1022D000006900F0010058B12068C06800F00100FA
:1022E00030B16FF0010021680861204600F002F96A
:1022F00020680069C0F3C01058B12068C068C0F3FE
:10230000C01030B16FF08000216808612046FFF7EF
:1023100001FE20680069C0F3801058B12068C068D1
:10232000C0F3801030B16FF0400021680861204692
:1023300000F01EF920680069C0F3401058B1206811
:10234000C068C0F3401030B16FF020002168086110
:102350002046FFF7E0FD10BD10B586B00446002012
:1023600002900390049005900E492068884217D18E
:1023700000BF0D48806940F004000B4988610846A1
:10238000806900F00400019000BF00BF4FF440706E
:10239000029002200390059002A90448FEF748FF2E
:1023A00006B010BD002C01400010024000080140A2
:1023B000704770B504460D46164600BF94F83C00C1
:1023C000012801D1022070BD012084F83C0000BF2B
:1023D000022084F83D0036B1042E1BD0082E31D0E7
:1023E0000C2E5ED145E02946206800F0A1FE206851
:1023F000806940F00800216888612068806920F0C9
:10240000040021688861206880692969084321687F
:10241000886147E02946206800F0BCFE206880699A
:1024200040F40060216888612068806920F4806041
:102430002168886120688069296940EA0120216853
:1024400088612FE02946206800F0DCFE2068C06922
:1024500040F008002168C8612068C06920F00400CD
:102460002168C8612068C069296908432168C8617A
:1024700018E02946206800F0FBFE2068C06940F49F
:1024800000602168C8612068C06920F4806021680C
:10249000C8612068C069296940EA01202168C861D3
:1024A00000E000BF00BF012084F83D0000BF002015
:1024B00084F83C0000BF00BF85E710B504460CB9A6
:1024C000012010BD94F83D0028B9002084F83C009C
:1024D000204600F00CF8022084F83D00211D206801
:1024E00000F0D6FD012084F83D000020E9E77047A8
:1024F0007047000010B504461749206809688842F3
:1025000028D116480088401C1449088008460088D5
:10251000B0F5FA6F01DD0020088011480088401CEA
:102520000F4908800F480088401C0E4908800E485B
:10253000007810B100F026FC01E000F0FBFA08483A
:102540000088B0F57A7F05DD00200549088001206C
:102550000649087010BD0000280400201C0000205F
:102560000A000020180000200D0000200C000020B0
:10257000704770472DE9F0470446206805682068D9
:10258000C668206847694FF00008C14605F00F088B
:10259000B8F1000F0AD105F0200038B106F0200094
:1025A00020B1204600F0E1FEBDE8F087B8F1000F51
:1025B0006DD007F0010018B906F49070002866D0BD
:1025C00005F0010030B106F4807018B1E06B40F006
:1025D0000100E06305F0040030B107F0010018B11C
:1025E000E06B40F00200E06305F0020030B107F05C
:1025F000010018B1E06B40F00400E06305F0080052
:1026000030B107F0010018B1E06B40F00800E06362
:10261000E06B68B305F0200028B106F0200010B18F
:10262000204600F0A2FE20684069C0F38019E06BEC
:1026300000F0080010B9B9F1000F22D0204600F0D8
:1026400074FE2068406900F04000B0B12068406925
:1026500020F0400021684861606B50B11748616B01
:102660004863606BFEF7D2FB10B1606B416B88472B
:102670000CE02046FFF77DFF08E02046FFF779FFDA
:1026800004E02046FFF775FF0020E0638CE705F0CB
:10269000800030B106F0800018B1204600F09CFFA9
:1026A00082E705F0400030B106F0400018B1204646
:1026B00000F04BFE78E700BF76E700001733000814
:1026C00010B504460CB9012010BDA06900B100E0AE
:1026D00000BF94F8390028B9002084F8380020465B
:1026E00000F028F8242084F839002068C06820F41D
:1026F00000502168C860204600F08AFE206800690A
:1027000020F49040216808612068406920F02A0088
:10271000216848612068C06840F400502168C860A2
:102720000020E063202084F8390084F83A0000207B
:10273000CAE7000010B586B004460020029003905E
:10274000049005902D492068884254D100BF2C4840
:10275000806940F480402A4988610846806900F415
:102760008040019000BF00BF00BF0846806940F074
:10277000080088610846806900F00800019000BFE9
:1027800000BF40200290022003900320059002A980
:102790001C48FEF74DFD802002900020039004901D
:1027A00002A91848FEF744FD1748406840F00400AD
:1027B00015494860154816490860102048600021F6
:1027C000134881608021C160002101614161816104
:1027D000C161FEF741FC08B1FDF74EFE00BF0C4899
:1027E0002063446200BF002211462520FEF729FF26
:1027F0002520FEF719FF06B010BD0000003801408B
:1028000000100240000C0140000001404400024062
:10281000A80400207047704700BFFEE70EB50020F7
:1028200000900190029018481849086081151748D7
:1028300081600121C160002141614FF46021C161CB
:10284000002012494860022110480161FEF7CEF8CD
:1028500008B1FDF711FE002000900120019000203A
:10286000029069460948FDF76FFF08B1FDF704FEC5
:10287000012000900220019069460448FDF764FFA2
:1028800008B1FDF7F9FD0EBD00240140B40300209E
:1028900008B500BF0E48406940F001000C4948618E
:1028A0000846406900F00100009000BF00BF002210
:1028B00011460B20FEF7C5FE0B20FEF7B5FE0022E9
:1028C00011460E20FEF7BDFE0E20FEF7ADFE08BD40
:1028D0000010024000B585B00020019002900390E6
:1028E000049000BF3648806940F020003449886178
:1028F0000846806900F02000009000BF00BF00BFC4
:102900000846806940F0040088610846806900F04C
:102910000400009000BF00BF00BF0846806940F07F
:10292000080088610846806900F00800009000BF38
:1029300000BF002218212348FEF70CFE182001904A
:102940000120029002200390049001A91D48FEF787
:102950006FFC802001901C4802900220039001A986
:102960001848FEF765FC42F20340019016480290B9
:102970000220039001A91548FEF75AFC00221146D7
:102980000620FEF75EFE0620FEF74EFE00221146F0
:102990000720FEF756FE0720FEF746FE00221146EE
:1029A0001720FEF74EFE1720FEF73EFE00221146CE
:1029B0002820FEF746FE2820FEF736FE05B000BDB3
:1029C000001002400008014000001110000C0140FE
:1029D00000B595B0002011901290139014900F90B4
:1029E00010901C2108A8FDF7EFFB1C2101A8FDF7A2
:1029F000EBFB2F482F4908604720486000212D48F5
:102A0000816040F2E731C160002101614161816173
:102A1000FFF7F2FA08B1FDF72FFD4FF48050119047
:102A200011A92448FFF733FB08B1FDF725FD214824
:102A3000FFF743FD08B1FDF71FFD00200F90109038
:102A40000FA91C48FFF7A7FA08B1FDF715FD602094
:102A50000890002009900A900B900C900D900E9019
:102A6000002208A91348FFF7A4FC08B1FDF704FDF4
:102A7000042208A90F48FFF79CFC08B1FDF7FCFCF5
:102A80000020019002900390049005904FF40050B4
:102A900006900020079001A90648FFF73DFA08B10B
:102AA000FDF7EAFC0348FFF757FC15B000BD000036
:102AB000002C01402804002010B50B480B49086089
:102AC0004FF4E1304860002108488160C160016135
:102AD0000C21416100218161C161FFF7F1FD08B165
:102AE000FDF7CAFC10BD000000380140680400205A
:102AF00000BFFEE77047000002480068C0F30220F4
:102B0000704700000CED00E010B5002807DA0A0756
:102B1000140E054A00F00F031B1FD45403E00A07EC
:102B2000130E024A135410BD18ED00E000E400E05B
:102B3000704700002DE9F041FF227A497A48FDF7FD
:102B4000BFFC00287ED077490988A1F1140001F06C
:102B50002AF8064675480CC8304600F09FFE044629
:102B600000F0F4FF00EBC00101EB00104FF6FF7125
:102B700001EA80006E4908806A494988A1F1140081
:102B800001F011F8064669480CC8304600F086FE90
:102B9000044600F0DBFF00EBC00101EB00104FF634
:102BA000FF7101EA80006249488008460088614957
:102BB0000988884205DD012208215F48FEF7CAFC2A
:102BC00004E0002208215C48FEF7C4FC5848408815
:102BD00058490988884205DD012210215648FEF730
:102BE000B9FC04E0002210215348FEF7B3FC00209A
:102BF00027E04C490988491C504A32F8102091427C
:102C000009DD48490A884D4B411C33F811108A42AE
:102C100001DA4B49088043494988491C474A143224
:102C200032F8102091420ADD3E494B884349143165
:102C3000421C31F812108B4201DA41494880411C94
:102C400088B200E04FE00928D3DB364800883D49D0
:102C50000988884209DD3A4800883949498888420C
:102C600003DD00203849087016E02E4840883549B9
:102C70004988884209DD32484088314909888842BC
:102C800003DD01203049087006E000202F49096863
:102C90000862FF202C4908702B480078FF283FD09D
:102CA00020482949097830F811102948264A127815
:102CB00030F8120081422CDA23480078A0B920496C
:102CC000088800F087FF06460022224B00F096FF9E
:102CD000044600F03BFF80B21C49096848630120AC
:102CE0001A49096808621BE01549488800F072FF1C
:102CF00006460022174B00F081FF044600F026FF35
:102D000080B2124909688863102010490968086276
:102D100006E000200D4909680862FF200A49087092
:102D2000BDE8F0812800002060000020480000205D
:102D3000200000201C000020000801408C0300201F
:102D4000520000202E000020500000202804002007
:102D5000320000200000594008B508490968C90838
:102D60004FF47A72B1FBF2F14143009100BF00BF12
:102D700000994A1E00920029F9D108BD5800002090
:102D80007047000070B57848027878497848FDF7B8
:102D900097FB78480088D0B974487349097830F8AF
:102DA00011001E282DDA71486F49097830F811009A
:102DB00071490968884205D96C486B49097830F82F
:102DC000110001E06C4800686B49086019E0674831
:102DD0006549097830F81100C82812DA6348624959
:102DE000097830F8110064490968884205D95F48BC
:102DF0005D49097830F8110001E05F4800685E49DC
:102E000008605E48008840F6B83188420FDD5948B6
:102E1000008860B9584800885949534A127821F807
:102E2000120001205349088000205349086053488C
:102E3000008841F27071884256DD00204F490880B9
:102E40004D480068B42806D94B4800884D49464A89
:102E5000127821F8120000200BE00021424A12787B
:102E600002EB8202484B03EB820222F81010411C55
:102E700088B20A28F1DB404800680A21B0FBF1F66D
:102E8000304600F0A7FE414A03C2404830C8002641
:102E900016E02046294600F059FE3349097801EB37
:102EA0008101394A02EB810121F8160037480CC82C
:102EB0002046294600F04AFC04460D46701C86B2A6
:102EC0000A2EE6DB0020324908702B4908602949A8
:102ED0000880002208212F48FEF73CFB0022102129
:102EE0002C48FEF737FB00BF2B480088B0F5967FD3
:102EF0002FDD0020284908801B48007810B10128E8
:102F000026D112E01B48008820B908212148FEF78D
:102F10001DFB04E0012208211E48FEF71BFB0022D6
:102F200010211C48FEF716FB12E01248008820B959
:102F300010211848FEF70AFB04E001221021154871
:102F4000FEF708FB002208211248FEF703FB00BF32
:102F500000BF11480088401C0F49088007480088BE
:102F6000401C0649088070BD1E000020280000207B
:102F7000600000203C000020380000201A000020E3
:102F80002E000020320000208C0300204000002092
:102F90000D000020000801401C00002010B5FEF7C5
:102FA000E5FA10BD00B593B0282109A8FDF70CF98A
:102FB000142104A8FDF708F9002000900190029068
:102FC00003900120099000040A9000200B9001203A
:102FD0000D9002201090C10311914FF4E011129155
:102FE00009A8FEF75DFD08B1FDF746FA0F20049031
:102FF00002200590002006904FF48060079000208A
:103000000890022104A8FEF707FC08B1FDF734FA86
:1030100002200090002002906846FEF765FB08B190
:10302000FDF72AFA13B000BD1148006840F0010016
:103030000F490860084640680E4908400C4948603E
:10304000084600680C4908400949086008460068BD
:1030500020F4802008600846406820F4FE004860A4
:103060004FF41F008860C8030449086070470000DF
:10307000001002400000FFF8FFFFF6FE08ED00E040
:1030800010B50248FFF79DF810BD0000280400208D
:1030900000220268184B984208D0B0F1804F05D04A
:1030A000164B984202D0164B984203D122F0700280
:1030B0004B681A43104B984208D0B0F1804F05D0AE
:1030C0000E4B984202D00E4B984203D122F440722C
:1030D000CB681A4322F080024B691A4302608B6866
:1030E000C3620B688362044B984201D10B6903638E
:1030F0000123436170470000002C014000040040A0
:103100000008004030B50C460021816821F47F4161
:1031100042EA032525432943816030BD0A46002148
:10312000816821F0700142F0070319438160704704
:1031300030B5002400220023056A25F00105056250
:10314000026A4368846924F0700424F003040D6863
:103150002C4322F002028D682A430D4DA84206D16D
:1031600000BF22F00802CD682A4322F00402084D75
:10317000A84207D123F4807323F400734D692B43D5
:103180008D692B43436084614D684563026230BDA5
:10319000002C014030B5002400220023056A25F0F0
:1031A00010050562026A4368846924F4E04424F44B
:1031B00040740D6844EA052422F020028D6842EA3A
:1031C00005120F4DA84207D100BF22F08002CD6842
:1031D00042EA051222F04002094DA84209D123F427
:1031E000806323F400634D6943EA85038D6943EAF4
:1031F0008503436084614D688563026230BD0000D1
:10320000002C014030B5002400220023056A25F47B
:1032100080750562026A4368C46924F0700424F072
:1032200003040D682C4322F400728D6842EA0522E3
:103230000E4DA84207D100BF22F40062CD6842EAD9
:10324000052222F48062094DA84209D123F480535B
:1032500023F400534D6943EA05138D6943EA0513CE
:103260004360C4614D68C563026230BD002C0140FB
:1032700030B5002200230024056A25F4805505623C
:10328000036A4468C26922F4E04222F440720D6885
:1032900042EA052223F400538D6843EA0533074DC3
:1032A000A84204D124F480444D6944EA8514446062
:1032B000C2614D680564036230BD0000002C01400E
:1032C00030B50B46144600210022026A056A25F03B
:1032D00001050562816921F0F00141EA041122F043
:1032E0000A021A438161026230BD30B50B461446B2
:1032F00000210022056A25F0100505628169026A35
:1033000021F4704141EA043122F0A00242EA0312A2
:103310008161026230BD70B505466C6A0020E085AF
:10332000E0842046FFF725F970BD0168C96821F4E3
:1033300090710268D1600168496921F00101026859
:103340005161202180F83A10704710B5044620687A
:10335000C06820F040002168C860202084F839004F
:103360002046FFF758FA002010BD70B5044694F8C7
:103370003A0022284AD1A068B0F5805F13D1A56A2F
:10338000206940B920684068C0F308002880A06A1E
:10339000801CA06219E020684068C0B22880A06A42
:1033A000401CA06211E0206938B920684068C1B2B1
:1033B000A26A501CA062117007E02068406800F00B
:1033C0007F01A26A501CA0621170E08D401E80B285
:1033D000E085C8B92068C06820F020002168C86076
:1033E0002068C06820F480702168C8602068406947
:1033F00020F0010021684861202084F83A0020462E
:10340000FFF708FA002070BD0020FCE70220FAE771
:103410002DE9F041044600252068006920F4405061
:10342000E1680843216808612169A068084361696F
:10343000084305432068C06841F20C618843284373
:103440002168C8602068406920F44070A169084381
:10345000216848615F49206888425CD1FEF7C4FA60
:1034600000EBC00101EB001061688900B0FBF1F6D0
:10347000FEF7BAFA00EBC00101EB001061688900A9
:10348000B0FBF1F06421B0FBF1F000EBC00101EB07
:103490000010A6EB8000322101EB00106421B0FB8C
:1034A000F1F000F0F006FEF79FFA00EBC00101EB2F
:1034B000001061688900B0FBF1F06421B0FBF1F00D
:1034C00006EB0016FEF790FA00EBC00101EB0010CE
:1034D00061688900B0FBF1F7FEF786FA00EBC001E6
:1034E00001EB001061688900B0FBF1F06421B0FBD2
:1034F000F1F000EBC00101EB0010A7EB80003221DE
:1035000001EB00106421B0FBF1F000F00F0030443B
:10351000216888605BE0FEF757FA00EBC00101EB21
:10352000001061688900B0FBF1F6FEF74DFA00EB80
:10353000C00101EB001061688900B0FBF1F064216B
:10354000B0FBF1F000EBC00101EB0010A6EB800036
:10355000322101EB00106421B0FBF1F000F0F00625
:10356000FEF732FA00EBC00101EB00106168890040
:10357000B0FBF1F06421B0FBF1F006EB0016FEF7B2
:1035800023FA00EBC00101EB001061688900B0FB79
:10359000F1F7FEF719FA00EBC00101EB00106168CA
:1035A0008900B0FBF1F06421B0FBF1F000EBC00149
:1035B00001EB0010A7EB8000322101EB0010642129
:1035C000B0FBF1F000F00F00304421688860BDE8E6
:1035D000F081000000380140014691F839002128AF
:1035E0002CD18868B0F5805F0FD10A6A1088C0F3CB
:1035F00008000B685860086918B9086A801C0862DE
:1036000009E0086A401C086205E00B6A581C086261
:1036100018780B685860C88C401E80B2C88458B9AE
:103620000868C06820F080000B68D8600868C0682F
:1036300040F040000B68D860002070470220FCE793
:1036400010B50248FEF796FF10BD00006804002088
:1036500000BFFEE72DE9F0412C48C0C840F2E73139
:103660002B48C16002222B492B48FDF7C1FA28489C
:10367000FEF7FEFC0020264909680862244800681D
:10368000406C40F40040224909684864002011E081
:1036900000210BE0002201EBC10303EB01131F4CDF
:1036A00004EB031323F810204A1C91B20229F1DB2A
:1036B000411C88B2C828EBDB00241AE000250CE08E
:1036C0003046394600F042FA05EB8501144A02EB18
:1036D000810121F81400681C85B2022DF0DB0B4833
:1036E0000CC83046394600F031F806460F46601CDB
:1036F00084B20A2CE2DB002004E00021094A1154C4
:10370000411C88B20228F8DBBDE8F08140000020AF
:103710002804002010000020B403002060000020D6
:103720008C0300202C000020FDF728FFFFF73AFC57
:10373000FFF7D0F8FFF7ACF8FFF770F8FFF748F99C
:10374000FFF7BAF9FFF786FF00BFFEE710B591EA71
:10375000030F48BF83F0004300F15683841A71EBD6
:10376000030C05D2121943EB0C03001B61EB0C0197
:10377000DFF824E14FEA1154A4EB135C1EEA430F77
:1037800018BF9EEA445F73D023EA0E03DCF1200EDB
:1037900021EA045143F4801332D322FA0CFE10EBD9
:1037A0000E0023FA0CFE41EB0E01CCF1200E03FAC1
:1037B0000EFE10EB0E0051F10001B1F5801FCCF1AF
:1037C000200E32D201EB045112FA0EF2BDE8104085
:1037D00058BF7047401C38BF5FEA420218BF7047AD
:1037E000002814BF20F0010041F100014FEA41031D
:1037F00013F5001F38BF7047A1F1C04100F0F6BAC1
:10380000012A43EB0302ACF1200CDCF11F0E32BFA6
:103810004FF0000E23FA0CF310EB030041EB0451C0
:10382000B4EB115FD0D0A1EB045101F58011490830
:103830005FEA300001EB04510ED350F1000038BFB5
:1038400012FA0EFE08D1BDE81040C9E7401C38BF8F
:103850005FEA4202CAD1C3E7BDE810404FEA410324
:1038600013F5001F38BF7047A1F1C04100F0BEBA88
:103870009EEA445F08D011EA5E0FBDE8104004BF25
:1038800001F0004100207047BDE8104070B500F025
:103890005FFA00BF64FBBE3E0000E0FF2DE9C041BF
:1038A00030B4DFF8A0C23CEA111418BF3CEA13148C
:1038B00000F0EC8081EA03051CEA111444EAD57497
:1038C00018BF1CEA131500F0C780A4EB05044FF0E5
:1038D000004545EAC12145EAC32341EA505143EA84
:1038E000525304F17F74994204F500344FEAC0202A
:1038F0004FEAC22208BF904200F09C804FEA136555
:103900000FF24016765D4FEA134506FB05F7C7F147
:10391000807706FB07F74FEAD737A7FB03687642A5
:10392000C8F58038A7FB06CE38BFA8F1010807FB11
:1039300008E64FF0000EA6FB028CE6FB03CEDCF19E
:10394000000CCEF1004E38BFAEF1010EA6FB0C58B4
:103950004FF000074FF00005E6FB0E87A1FB08C6FD
:10396000A0FB07CE16EB0E0645F10005E1FB07654F
:1039700015F1E04E7EBFA4F580345FEA46066D4146
:1039800016F1800745F100054FEA17274FEA066652
:1039900047EA0567A6F1DE46B6F1805F4FEA1525D6
:1039A0001FD9384624F0010C05EBC471BCF1FE6F41
:1039B00001EB0C1102D8F0BCBDE8008124425CBFD1
:1039C00001F5801E9EEAC47F02D4F0BCBDE80081F0
:1039D000244238D4F0BCA1F1C041BDE8004100F060
:1039E00005BA4FEAD22242EA43524FEAD323A7FB59
:1039F00002864FEAD02040EA415007FB03661EEAE8
:103A00000E0F4FEAD12105FB026658BFA6EB005608
:103A1000B6EB00564FEA520E4EEAC37E18EB0E0E7E
:103A200056EB530EBDD518EB02085E417F1C55F1D5
:103A30000005B6E74FF480154FF000074FF0000681
:103A40004FF00008ADE7F0BC4FF0000001F1C041BD
:103A500001F00041BDE8008111EA0C1F0CEA1315CA
:103A600000D00CE013EA0C1F00F025804FF000009E
:103A7000F0BC81EA030101F00041BDE80081F0BC27
:103A8000BDE8004181EA030100F0B0B9F0BCBDE837
:103A9000004170B500F05CF9097EFC3E00F007B80B
:103AA00081EA03014FF0000001F00041704781EA14
:103AB000030100F09BB9F0BCBDE800414FF00000ED
:103AC00021497047FFFDFBF9F7F5F4F2F0EEEDEB5D
:103AD000E9E8E6E4E3E1E0DEDDDBDAD8D7D5D4D30C
:103AE000D1D0CFCDCCCBCAC8C7C6C5C4C2C1C0BF58
:103AF000BEBDBCBBBAB9B8B7B6B5B4B3B2B1B0AF5E
:103B0000AEADACABAAA9A8A8A7A6A5A4A3A3A2A141
:103B1000A09F9F9E9D9C9C9B9A99999897979695FC
:103B200095949393929191908F8F8E8E8D8C8C8B98
:103B30008B8A898988888787868585848483838220
:103B4000828181800000FF070000F87F4FEA115357
:103B5000A3F58063D3F11E03A8BFD3F1200C08DBCB
:103B60004FF0004242EAC12252EA505232FA03F0C8
:103B7000704709420BD4102BC4BF0020704703F5D7
:103B8000787CBCF1FF3F05D04FF0FF3070474FF01D
:103B90000000704770B500F0DBF800BF4992248048
:103BA00000207047F0E710F0004248BF4042B0FAF2
:103BB00080F310FA03F10AD0C3F11D0303F580630B
:103BC0004FEA415002EB035202EBD12170474FF014
:103BD00000007047B0FA80F310FA03F10AD0C3F185
:103BE0001D0303F580634FEA41504FEA035202EB95
:103BF000D12170474FF0000070470000DFF848C146
:103C000070B51CEA111E1EBF1CEA13159EEA0C0FAC
:103C100095EA0C0F00F06F8081EA030423EA4C134D
:103C20004EEAD47E21EA4C1141F4801143F4801312
:103C3000AE44A1FB024CA0FB0365AEF17F7E3619BA
:103C400055EB0C05A1FB034C4CF10003A0FB021C3F
:103C500016EB0C06654153F10003094218BF46F00C
:103C6000010613F4007F0BD14FEA03314FEA053010
:103C7000340341EA155140EA16506FF003020AE09E
:103C80004FEAC3214FEAC520F40241EA555140EA08
:103C900056506FF0020202EB2E4201EB025585EA0C
:103CA000CE710AD05FEA440C18BF24F0004450F1F2
:103CB000000041F1000120EAD47040F2FE7C624530
:103CC00000D270BDA84214BF4FF080444FF0404472
:103CD000002E08BF0024BEF1806FA8BFA1F1C04133
:103CE000BDE8704080F282804FF0000001F1C041D9
:103CF00001F0004170479EEA0C0F0CEA131518BF43
:103D000095EA0C0F06D04FF0000081EA030E0EF08A
:103D1000004170BD00F01CF88900013E00F007B8BA
:103D200000F009B84FEA430C5FEA5C5C08D081EA16
:103D3000030100F05BB84FEA410C5FEA5C5CF6D12E
:103D40004FF00000014970470000FF070000F87FB6
:103D50000EF1020E2EF0030E5EF8046B364205D40F
:103D6000012A43EB030515F5001F12D8012841EB8A
:103D7000010C1CF5001F0CD80ED14FEAD17C15F5B3
:103D8000001F0CEB4C0C0CF1020C08BF4CEBD37C6D
:103D900004E04FF0080C01E04FEAD37C0CEB4C053B
:103DA00026FA05F606F00706B6F1040C06D20EEB6D
:103DB000860CBDE870404CF0010C6047DFE80CF069
:103DC000090B02024FF000414FF00000A1F5002165
:103DD00070BD19461046012851EB010418BFD4F5F7
:103DE000001484BF002001F0004170BD0808A0F558
:103DF00000114FEA3101704710B591EA030F48BF37
:103E000083F000433FF5AAAC841A71EB030C07D290
:103E100012198CF0004C43EB0C03001B61EB0C01FE
:103E2000DFF8A4E14FEA1154A4EB135C1EEA430F40
:103E300018BF9EEA445F00F0B08023EA6E0352424E
:103E400021EA0451C3EB6E0338BF5B1EDCF1200E88
:103E500025D322FA0CFE10EB0E0043FA0CFE41EBC8
:103E60000E01CCF1200E03FA0EFE10EB0E0051F104
:103E70000001CCF1200E29D412FA0EF201EB04510C
:103E8000BDE8104058BF7047401C1CBFB2F1004F46
:103E9000704700280CBF491C20F00100704712EB4E
:103EA000020E43EB030218BF4FF0010E4EEA42022E
:103EB000ACF1200CDCF11E0E54D943FA0CFE10EBD1
:103EC0000E0051F1FF31CCF11E0ED5D50EF1010ED1
:103ED00012FA0EFE404141EB010101EB445C5FEA46
:103EE0005C5C10D910EBDE7001EB045138BFBEF101
:103EF000004FBDE8104018BF704700280CBF491C98
:103F000020F00100704730D24FEAD42C11F5001197
:103F100024F400641BD0B1FA81F20B3AA41AA41E57
:103F2000D2F12003914030FA03F31943904001EBA2
:103F3000CC71002C01EB0451BDE81040A8BF7047C4
:103F400001F1C0414FF0000001F000417047B0FAAC
:103F500080F310FA03F100D110BDE41A173C4805B4
:103F6000C90AE4E701EB045110BD491001EB04510B
:103F7000BDE810404FEA300002E04FF0000170470A
:103F80004A0008BF0042F8D0B2F5001F28BF7047B2
:103F900001F000414FF0000070479EEA445F07D0F7
:103FA00011EA5E0FBDE8104004BF002100207047F9
:103FB000BDE8104070B5FFF7CBFE00BF40DFF63E16
:103FC00083F00041104670470000E0FF0000000051
:103FD00000000000010203040607080900000000B9
:103FE00001020304044000080000002060000000FB
:103FF000280100086440000860000020F00A00006A
:104000004401000800000000000000000000000063
:1040100000000000000000000000000000000000A0
:104020000000000000000000000000000000000090
:10403000000014001400B400B400000000000000F0
:1040400000000000000000000000324000000000FE
:1040500000002040FF0000000000000000A24A0411
:04406000000000005C
:04000005080000ED02
:00000001FF
